:100000000A128A11DF2D00308A000408840A820750
:1000100000344134443443342034563461346C3435
:0C0020007534653420343A342034003448
:100BBE0083010A128A11472EF60076088312031358
:100BCE0087000610861006150230F0000030F10086
:100BDE000A128A1173260A128A118312031306113E
:100BEE000800F60076088312031387000614861099
:100BFE0006150230F0000030F1000A128A11732639
:100C0E000A128A11831203130611080038300A12D1
:100C1E008A11E3250A128A110C300A128A11E32571
:100C2E000A128A1106300A128A11E3250A128A1153
:100C3E0001300A128A11E3250A128A110800F800FF
:100C4E00392E780884000A128A1103200A128A119A
:100C5E000A128A11F8250A128A110130F700770854
:100C6E00F807392E780884000A128A1103200A1216
:100C7E008A110038031D442E452E282E462E0800BC
:100C8E0083160313061086100611870105140A1227
:100C9E008A110D260A128A1101300A128A1126268D
:100CAE000A128A115A2E8C300A128A11E3250A1260
:100CBE008A110A128A113D270A128A112C30F0006D
:100CCE000130F1000A128A1173260A128A115A2E65
:100CDE005A2E0A128A1100280030F2000030F3005A
:100CEE009D2E0030F4000030F50004307502B03057
:100CFE0003197402031C842E852E872E972E972E91
:100D0E000130F4070318F50A0030F50704307502B8
:100D1E00B03003197402031C952E962E872E972E33
:100D2E000130F2070318F30A0030F307710873025B
:100D3E00031DA32E70087202031CA62EA72E782E5A
:100D4E00A82E0800790878040319AE2EAF2EE52ED2
:100D5E00FD010314FD0DBF2E01300310F80DF90D2A
:100D6E00FF3E031DB42E0130FC007C08FD07BF2E94
:100D7E00F91FC22EC32EB32EC52EC52E79087B02A7
:100D8E00031DCB2E78087A02031CCE2ECF2ED62E24
:100D9E007808FA027908031CFB03FB02D62E0130F9
:100DAE000310F90CF80CFF3E031DD72E0130FD0287
:100DBE00031DE22EE32EC52EE52EE52E7B08F9014E
:100DCE00F9077A08F801F807EC2E08000030F50054
:100DDE000030F600710870040319F62EF72E352F29
:100DEE00F7010314F70D072F01300310F00DF10D6D
:100DFE00FF3E031DFC2E0130F4007408F707072F89
:100E0E00F11F0A2F0B2FFB2E0D2F0D2F013003106C
:100E1E00F50DF60DFF3E031D0E2F71087302031D17
:100E2E001A2F70087202031C1D2F1E2F262F7008FA
:100E3E00F2027108031CF303F3027514262F01301E
:100E4E000310F10CF00CFF3E031D272F0130F702AB
:100E5E00031D322F332F0D2F352F352F7608F1012D
:100E6E00F1077508F001F0073C2F0800803083165B
:100E7E0003139F004130831203139F000230F000D2
:100E8E000030F1000A128A1173260A128A11831297
:100E9E0003131F15522F1F19552F562F522F572F31
:100EAE001E08A000A1010830FF000310A00DA10D27
:100EBE00FF0B5C2F831603131E08831203132004EB
:100ECE00A2002108A3000330F0000030F100230837
:100EDE00F301F3072208F201F2070A128A11ED2636
:100EEE000A128A117008FF3E83120313A2007108C2
:100EFE000318013EFF3EA300E830F0000330F1007E
:100F0E002308F301F3072208F201F2070A128A11ED
:100F1E00ED260A128A117008303E0A128A11F8253F
:100F2E000A128A110A30F8000030F9006430F0001D
:100F3E000030F100831203132308F301F307220894
:100F4E00F201F2070A128A11ED260A128A117108AD
:100F5E00FB01FB077008FA01FA070A128A11A9268B
:100F6E000A128A117808303E0A128A11F8250A12DE
:100F7E008A110A30F8000030F9000A30F000003013
:100F8E00F100831203132308F301F3072208F20181
:100F9E00F2070A128A11ED260A128A117108FB0154
:100FAE00FB077008FA01FA070A128A11A9260A121B
:100FBE008A117808303E0A128A11F8250A128A110F
:100FCE000A30F8000030F900831203132308FB01E6
:100FDE00FB072208FA01FA070A128A11A9260A1239
:100FEE008A117808303E0A128A11F8250A128A11DF
:020FFE000800E9
:00000001FF
