:060000000A128A11702FA4
:100E9C007E088A007F0882004E270A128A11800081
:100EAC00840A04087D0603190034FF0A0319FE0A9C
:100EBC00522F00343F3406345B344F3466346D3477
:100ECC007D3407347F346F3477347C3439345E347A
:100EDC0079347134F70183133130FD000730FE0093
:100EEC005F30FF00203084000A128A1152270A1248
:100EFC008A1183010A128A11B92F0030F2000030D6
:100F0C00F300AD2F0030F4000030F5000030750216
:100F1C00D23003197402031C942F952F972FA72FEF
:100F2C00A72F0130F4070318F50A0030F50700303D
:100F3C007502D23003197402031CA52FA62F972F0C
:100F4C00A72F0130F2070318F30A0030F3077108DA
:100F5C007302031DB32F70087202031CB62FB72F38
:100F6C00882FB82F080083160313880107148312E7
:100F7C00031307140310003003180130F70077082F
:100F8C00203E8400831300088800CC2F0718CF2F35
:100F9C00D02FCC2F1430F0000030F1000A128A113F
:100FAC0083270A128A11831203130718DE2FDF2FEF
:100FBC00CC2F0130F6007608F70711307702031CAE
:100FCC00E82FE92FED2FF7010314F70DED2F77081C
:100FDC00203E8400831300088800F42F071CF72F91
:100FEC00F82FF42FCC2FCC2FCC2FCC2FCC2F0A12A8
:040FFC008A1100282E
:00000001FF
