:100000000A128A110C2F00308A000408840A820721
:10001000003447344F3457345434483441344D3429
:020020000034AA
:100E180083010A128A11C52FF6007608831203137C
:100E280087000610861006150230F0000030F10029
:100E38000A128A118F270A128A11831203130611C4
:100E48000230F0000030F1000A128A118F270A12CE
:100E58008A110800F6007608831203138700061427
:100E6800861006150230F0000030F1000A128A11CF
:100E78008F270A128A118312031306110230F00019
:100E88000030F1000A128A118F270A128A1108000D
:100E9800F8005F2F780884000A128A1103200A12CA
:100EA8008A110A128A112E270A128A110130F700B4
:100EB8007708F8075F2F780884000A128A11032040
:100EC8000A128A110038031D6A2F6B2F4E2F6C2FC0
:100ED800080038300A128A1110270A128A110C30B9
:100EE8000A128A1110270A128A1106300A128A1168
:100EF80010270A128A1101300A128A1110270A12C1
:100F08008A110530F0000030F1000A128A118F278B
:100F18000A128A1108000030F2000030F300B92FDD
:100F28000030F4000030F500003075026E3003190F
:100F38007402031CA02FA12FA32FB32FB32F0130AE
:100F4800F4070318F50A0030F507003075026E3013
:100F580003197402031CB12FB22FA32FB32F013032
:100F6800F2070318F30A0030F30771087302031D30
:100F7800BF2F70087202031CC22FC32F942FC42FD7
:100F880008008316031306108610061187010A123B
:100F98008A116D270A128A1184300A128A111027C1
:100FA8000A128A1101300A128A114C270A128A1170
:100FB800DD2F08300A128A1110270A128A11F4301C
:100FC800F0000130F1000A128A118F270A128A11E3
:100FD8000C300A128A1110270A128A11F430F00014
:100FE8000130F1000A128A118F270A128A11DD2FA7
:080FF800DD2F0A128A11002806
:00000001FF
