:060000000A128A11BE2F56
:100F7C0083010A128A11C22F831603138601C62F0E
:100F8C000F308312031386000A128A11DC270A120F
:100F9C008A118312031386010A128A11DC270A12A2
:100FAC008A11C62FC62F0A128A1100280030F000B1
:100FBC000030F1000030F0000030F10075307102AB
:100FCC00303003197002031CEC2FED2FEF2FFF2F85
:100FDC00FF2F0130F0070318F10A0030F1077530CC
:100FEC007102303003197002031CFD2FFE2FEF2FFE
:040FFC00FF2F0800BB
:00000001FF
