:100000000A128A11AE2E00308A000408840A820780
:1000100000345034723465347334733420344234D1
:100020007534743474346F346E3400344D34313478
:100030003A34203446344F345234573441345234F5
:10004000443400344D3432343A342034523445345C
:0C005000563445345234533445340034E7
:100D5C0083010A128A11722F0030F2000030F30066
:100D6C00BD2E0130F2070318F30A0030F3077108A7
:100D7C007302031DC32E70087202031CC62EC72EED
:100D8C00B72EC82E0800F8007808831203138800C9
:100D9C000710871007150230F4000030F5000A1216
:100DAC008A1105270A128A118312031307110230C4
:100DBC00F4000030F5000A128A1105270A128A1174
:100DCC000800F800780883120313880007148710B2
:100DDC0007150130F4000030F5000A128A110527BE
:100DEC000A128A118312031307110130F400003028
:100DFC00F5000A128A1105270A128A110800003020
:100E0C00F6000030F7001A2F6E30F0000030F100C1
:100E1C000A128A11B2260A128A110130F607031837
:100E2C00F70A0030F7071A2F75087702031D202FD9
:100E3C0074087602031C232F242F0A2F252F080059
:100E4C00FA00392F7A0884000A128A1103200A1238
:100E5C008A110A128A11E7260A128A110130F90046
:100E6C007908FA07392F7A0884000A128A110320AC
:100E7C000A128A110038031D442F452F282F462FA4
:100E8C0008001430F4000030F5000A128A1105270E
:100E9C000A128A1138300A128A11C9260A128A11CA
:100EAC000C300A128A11C9260A128A1106300A124B
:100EBC008A11C9260A128A1101300A128A11C9260E
:100ECC000A128A110530F4000030F5000A128A115A
:100EDC0005270A128A1108008316031306108610C0
:100EEC0006128612071087100711071688010A12BE
:100EFC008A1147270A128A110230FB007B08FC007A
:100F0C00872F83120313071E8C2F8D2FC32F7C0862
:100F1C00013A0319922F932F872F0614861006126D
:100F2C00861601300A128A11C9260A128A11053056
:100F3C00F4000030F5000A128A1105270A128A11F2
:100F4C0080300A128A11C9260A128A110E300A122E
:100F5C008A1126270A128A11C0300A128A11C92650
:100F6C000A128A111A300A128A1126270A128A11B9
:100F7C00FC010314FC0D872F872F7C08031DC72F42
:100F8C00872F831203130610861006128612013067
:100F9C000A128A11C9260A128A110530F40000308F
:100FAC00F5000A128A1105270A128A1180300A12DA
:100FBC008A11C9260A128A1101300A128A112627AF
:100FCC000A128A11C0300A128A11C9260A128A1111
:100FDC0001300A128A1126270A128A1103100030D6
:100FEC0003180130FC00872F872F872F872F0A12B9
:040FFC008A1100282E
:00000001FF
