:060000000A128A11B82F5C
:100F700083010A128A11DC2F0030F0000030F100EA
:100F800075307102303003197002031CC82FC92F4D
:100F9000CB2FDB2FDB2F0130F0070318F10A0030D5
:100FA000F10775307102303003197002031CD92F1C
:100FB000DA2FCB2FDB2F08000630831603139F0098
:100FC00085010F3086008312031385010618E92F6F
:100FD000EA2FF22F013085000A128A11BC270A126B
:100FE0008A11E32F8312031385010A128A11BC2789
:100FF0000A128A11E32FE32FE32F0A128A11002825
:00000001FF
