:100000000A128A110E2F00308A000408840A82071F
:100010000034203420342034203420342034203460
:100020004E344434203420342034203420342034DE
:1000300020340034203420342034203444346534D7
:100040007434653463347434653464342034203457
:06005000203420340034CE
:100E1C0083010A128A11BE2FF6007608831203137F
:100E2C0087008611061286160230F0000030F100A1
:100E3C000A128A1188270A128A1183120313861246
:100E4C000800F60076088312031387008615061235
:100E5C0086160230F0000030F1000A128A11882741
:100E6C000A128A118312031386120800F8004F2FFE
:100E7C00780884000A128A1103200A128A110A12B5
:100E8C008A1127270A128A110130F7007708F80710
:100E9C004F2F780884000A128A1103200A128A1133
:100EAC000038031D5A2F5B2F3E2F5C2F0800323069
:100EBC00F0000030F1000A128A1188270A128A11F8
:100ECC0038300A128A1112270A128A110C300A12AF
:100EDC008A1112270A128A1106300A128A11122755
:100EEC000A128A1101300A128A1112270A128A1167
:100EFC000A30F0000030F1000A128A1188270A1219
:100F0C008A1108000030F2000030F300B22F0030DC
:100F1C00F4000030F50000307502D2300319740271
:100F2C00031C992F9A2F9C2FAC2FAC2F0130F40758
:100F3C000318F50A0030F50700307502D23003199A
:100F4C007402031CAA2FAB2F9C2FAC2F0130F2077D
:100F5C000318F30A0030F30771087302031DB82F4E
:100F6C0070087202031CBB2FBC2F8D2FBD2F0800E5
:100F7C00831603138601870188170A128A115D27CD
:100F8C000A128A11C92F83120313881BCE2FCF2F5D
:100F9C00E52F80300A128A1112270A128A11123098
:100FAC000A128A113C270A128A11C830F00000304C
:100FBC00F1000A128A1188270A128A11C92F80306F
:100FCC000A128A1112270A128A1101300A128A1186
:100FDC003C270A128A11C830F0000030F1000A12C6
:100FEC008A1188270A128A11C92FC92FC92F0A12F0
:040FFC008A1100282E
:02400E003A3F37
:00000001FF
