:100000000A128A11F72E00308A000408840A820737
:1000100000344E344F3420344F3442344A34203488
:1000200044344534543445344334543445344434EE
:100030002034003420344F3442344A3420344434A1
:1000400045345434453443345434453444342034F2
:040050002034003424
:100DEE0083010A128A11A72F38300A128A1114278A
:100DFE000A128A110C300A128A1114270A128A1149
:100E0E0006300A128A1114270A128A1180300A1229
:100E1E008A1114270A128A110800F6007608831226
:100E2E00031387000610861006150230F0000030FE
:100E3E00F1000A128A1171270A128A118312031302
:100E4E0006110230F0000030F1000A128A117127EB
:100E5E000A128A110800F60076088312031387001F
:100E6E000614861006150230F0000030F1000A124A
:100E7E008A1171270A128A11831203130611023086
:100E8E00F0000030F1000A128A1171270A128A113D
:100E9E000800F800632F780884000A128A110320D4
:100EAE000A128A110A128A1132270A128A11013085
:100EBE00F7007708F807632F780884000A128A1162
:100ECE0003200A128A110038031D6E2F6F2F522F26
:100EDE00702F08000030F2000030F3009B2F00301E
:100EEE00F4000030F50000307502C83003197402AA
:100EFE00031C822F832F852F952F952F0130F407FA
:100F0E000318F50A0030F50700307502C8300319D2
:100F1E007402031C932F942F852F952F0130F20707
:100F2E000318F30A0030F30771087302031DA12F93
:100F3E0070087202031CA42FA52F762FA62F08006F
:100F4E008316031387010610861006110F308800D2
:100F5E000A128A11FB260A128A110230F900790848
:100F6E00FA00B92F003083120313081801307A06E5
:100F7E000319C22FC32FB92F80300A128A111427DA
:100F8E000A128A1183120313081CCE2FCF2FE52FBE
:100F9E0080300A128A1114270A128A1112300A128C
:100FAE008A1150270A128A110230F0000030F10027
:100FBE000A128A1171270A128A11F22F80300A1230
:100FCE008A1114270A128A1101300A128A11502727
:100FDE000A128A11F22F00308312031308180130FF
:100FEE00F9007908FA00B92FB92FB92F0A128A1110
:020FFE000028C9
:00000001FF
