:100000000A128A11EA2D00308A000408840A820745
:100010000034443465347434653463347434653482
:0A002000643400344E3444340034DC
:100BD400A60183010A128A11652EF6007608831293
:100BE400031387008611061286160230F0000030C7
:100BF400F1000A128A1191260A128A118312031330
:100C040086120800F60076088312031387008615FF
:100C1400061286160230F0000030F1000A128A1122
:100C240091260A128A118312031386120800F8000F
:100C34002C2E780884000A128A1103200A128A11C1
:100C44000A128A1104260A128A110130F700770861
:100C5400F8072C2E780884000A128A1103200A123D
:100C64008A110038031D372E382E1B2E392E08000A
:100C74001430F0000030F1000A128A1191260A1291
:100C84008A1138300A128A11EF250A128A110C309F
:100C94000A128A11EF250A128A1106300A128A11E1
:100CA400EF250A128A1101300A128A11EF250A125D
:100CB4008A110230F0000030F1000A128A119126E4
:100CC4000A128A1108008316031386018701081784
:100CD4000A128A113A260A128A11702E83120313F9
:100CE400081F752E762E812E0130FD007D08F90037
:100CF40001300A128A1140270A128A11702E0A3012
:100D0400FD007D08F90001300A128A1140270A12F9
:100D14008A11702E702E702E0A128A11002800304B
:100D2400F2000030F300BB2E0030F4000030F50078
:100D340000307502D23003197402031CA22EA32EB4
:100D4400A52EB52EB52E0130F4070318F50A003090
:100D5400F50700307502D23003197402031CB32E58
:100D6400B42EA52EB52E0130F2070318F30A003075
:100D7400F30771087302031DC12E70087202031C6D
:100D8400C42EC52E962EC62E08000310003003185C
:100D94000130F600F11FCF2ED02ED92EF009F10923
:100DA400F00A0319F10AF6010314F60DD92EF31F04
:100DB400DC2EDD2EE62EF209F309F20A0319F30AFA
:100DC4000130F4007408F6060030F7000030F80033
:100DD400710870040319EF2EF02E2E2FF501031461
:100DE400F50D002F01300310F00DF10DFF3E031D32
:100DF400F52E0130F4007408F507002FF11F032FBE
:100E0400042FF42E062F062F01300310F70DF80DD2
:100E1400FF3E031D072F71087302031D132F700873
:100E24007202031C162F172F1F2F7008F20271086D
:100E3400031CF303F30277141F2F01300310F10C8A
:100E4400F00CFF3E031D202F0130F502031D2B2F54
:100E54002C2F062F2E2F2E2F7608031D322F382FDE
:100E6400F709F809F70A0319F80A382F7808F10185
:100E7400F1077708F001F0073F2F080083120313EE
:100E8400A2000310003003180130A5004E2F0130DA
:100E9400FA007A08A5074E2F2508790784000A125C
:100EA4008A1103200A128A110038031D5A2F5B2F5E
:100EB400492F5C2F0230F0000030F1002608FA00C0
:100EC400FB01FA09FB09FA0A0319FB0A7A08103E26
:100ED400F2007B080318013E003EF3000A128A1157
:100EE400C7260A128A117008FC007C0883120313B7
:100EF400A3002608031D7F2FBC2F2208013A031DDF
:100F0400842F852F8D2F2308803E0A128A11EF2506
:100F14000A128A11972F831203132308803E0A12A0
:100F24008A11EF250A128A11972F003083120313B6
:100F3400A0000030A100AD2F20300A128A1104262F
:100F44000A128A11013083120313A0070318A10A9D
:100F54000030A107AD2F2608FA00FB017B0821020F
:100F6400031DB62F7A082002031CB92FBA2F9E2F17
:100F7400BC2FBC2F0230F0000030F1002508FA002D
:100F8400FB01FA09FB09FA0A0319FB0A7A08103E65
:100F9400F2007B080318013E003EF3000A128A1196
:100FA400C7260A128A117008FC007C0883120313F6
:100FB400A4002208013A031DE02FE12FE92F2408A1
:100FC400803E0A128A11EF250A128A11F32F831226
:100FD40003132408C03E0A128A11EF250A128A114B
:100FE400F32F79080A128A1119260A128A11831218
:0C0FF40003132508FA007A08A600080084
:00000001FF
