:060000000A128A11972F7D
:100F2E0083010A128A11BB2F0030F0000030F1004D
:100F3E00C3307102503003197002031CA72FA82F63
:100F4E00AA2FBA2FBA2F0130F0070318F10A00307A
:100F5E00F107C3307102503003197002031CB82F11
:100F6E00B92FAA2FBA2F08008316031386018312F6
:100F7E0003138601C22FF3010314F30D80307302A5
:100F8E00031CCA2FCB2FCD2FDF2FDF2F7308831219
:100F9E00031386000A128A119B270A128A11031064
:100FAE00F30D80307302031CDD2FDE2FCD2FDF2FCC
:100FBE008030F2007208F300F308031DE72FE82FCC
:100FCE00EA2FC22FC22F73088312031386000A1250
:100FDE008A119B270A128A110310F30CF308031DC2
:100FEE00F92FFA2FEA2FC22FC22FC22F0A128A11FF
:020FFE000028C9
:00000001FF
