:060000000A128A11702FA4
:100E9E003F3406345B344F3466346D347D3407345E
:100EAE007F346F3477347C3439345E347934713432
:100EBE007E088A007F0882005F270A128A1180004E
:100ECE00840A04087D0603190034FF0A0319FE0A7A
:100EDE00632F83134130FD000730FE004F30FF00BB
:100EEE00313084000A128A1163270A128A11830193
:100EFE000A128A11B82F0030F2000030F300AC2F26
:100F0E000030F4000030F50000307502D2300319C5
:100F1E007402031C932F942F962FA62FA62F013009
:100F2E00F4070318F50A0030F50700307502D230C9
:100F3E0003197402031CA42FA52F962FA62F013080
:100F4E00F2070318F30A0030F30771087302031D4A
:100F5E00B22F70087202031CB52FB62F872FB72F32
:100F6E000800203084003130F6000408F7001030FD
:100F7E00F8007608840083130008F900F60A770853
:100F8E00840079088000F70AF80BC02F831603132C
:100F9E008801D12F03100030031801308312B000E6
:100FAE0010303002031CDC2FDD2FDF2FD12FD12F7D
:100FBE003008203E8400831300088800E830F000DB
:100FCE000330F1000A128A1182270A128A110130A7
:100FDE00F600760883120313B00710303002031C9C
:100FEE00F92FFA2FDF2FD12FD12FD12F0A128A11DD
:020FFE000028C9
:00000001FF
