:060000000A128A113C2ED9
:100C34007E088A007F0882001A260A128A11800020
:100C4400840A04087D0603190034FF0A0319FE0A06
:100C54001E2E00343F3406345B344F3466346D3416
:100C64007D3407347F346F3477347C3439345E34E4
:100C740079347134B101B201B301B401B501B601E3
:100C840083133130FD000630FE002B30FF0020308E
:100C940084000A128A111E260A128A1183010A127A
:100CA4008A11082F0030F0000030F100003071028A
:100CB400C83003197002031C602E612E632E732E3C
:100CC400732E0130F0070318F10A0030F1070030E9
:100CD4007102C83003197002031C712E722E632E28
:100CE400732E0800790878040319792E7A2EB02E11
:100CF400FD010314FD0D8A2E01300310F80DF90DCA
:100D0400FF3E031D7F2E0130FC007C08FD078A2E68
:100D1400F91F8D2E8E2E7E2E902E902E79087B021A
:100D2400031D962E78087A02031C992E9A2EA12E62
:100D34007808FA027908031CFB03FB02A12E013098
:100D44000310F90CF80CFF3E031DA22E0130FD0226
:100D5400031DAD2EAE2E902EB02EB02E7B08F901C1
:100D6400F9077A08F801F807B72E08000030F500F3
:100D74000030F600710870040319C12EC22E002F32
:100D8400F7010314F70DD22E01300310F00DF10D0D
:100D9400FF3E031DC72E0130F4007408F707D22E5E
:100DA400F11FD52ED62EC62ED82ED82E01300310E4
:100DB400F50DF60DFF3E031DD92E71087302031DB8
:100DC400E52E70087202031CE82EE92EF12E70083D
:100DD400F2027108031CF303F3027514F12E0130BF
:100DE4000310F10CF00CFF3E031DF22E0130F7024C
:100DF400031DFD2EFE2ED82E002F002F7608F101A4
:100E0400F1077508F001F007072F08008316031394
:100E1400870188010D2F00308312B7000030B8001D
:100E240000303802C83003193702031C1A2F1B2F55
:100E34001D2FE72FE72FE830F0000330F1003208D0
:100E4400F301F3073108F201F2070A128A11B826F6
:100E54000A128A11700883120313B9003908B30007
:100E64000A30F8000030F9006430F0000030F1007E
:100E74003208F301F3073108F201F2070A128A116A
:100E8400B8260A128A117108FB01FB077008FA01DF
:100E9400FA070A128A1174260A128A117808831230
:100EA4000313B9003908B4000A30F8000030F9001F
:100EB4000A30F0000030F1003208F301F307310882
:100EC400F201F2070A128A11B8260A128A1171086D
:100ED400FB01FB077008FA01FA070A128A1174264B
:100EE4000A128A11780883120313B9003908B5006D
:100EF4000A30F8000030F9003208FB01FB07310822
:100F0400FA01FA070A128A1174260A128A11780859
:100F140083120313B9003908B6003308203E840055
:100F240083130008870008108814081588150A120E
:100F34008A1154260A128A118312031308143408DE
:100F4400203E8400831300088700081488100815C5
:100F540088150A128A1154260A128A11831203135D
:100F640088143508203E8400831300088700081481
:100F74008814081188150A128A1154260A128A1133
:100F84008312031308153608203E840083130008D7
:100F9400870008148814081588110A128A11542627
:100FA4000A128A118312031388150130B707031834
:100FB400B80A0030B80700303802C83003193702C5
:100FC400031CE52FE62F1D2FE72F0130B10703186F
:100FD400B20A0030B207273032021030031931024E
:100FE400031CF52FF62F0D2F0030B1000030B20096
:0C0FF4000D2F0D2F0D2F0A128A1100285E
:00000001FF
