:060000000A128A11A22E73
:100D0E003F3406345B344F3466346D347D340734EF
:100D1E007F346F347E088A007F08820091260A1283
:100D2E008A118000840A04087D0603190034FF0A24
:100D3E000319FE0A952EF801F901FA01FB0183133E
:100D4E002A30FD000630FE008730FF002030840080
:100D5E000A128A1195260A128A1183010A128A1121
:100D6E00822F0030F2000030F300E22E0030F4004B
:100D7E000030F50000307502643003197402031C54
:100D8E00C92ECA2ECC2EDC2EDC2E0130F407031811
:100D9E00F50A0030F507003075026430031974024D
:100DAE00031CDA2EDB2ECC2EDC2E0130F2070318BC
:100DBE00F30A0030F30771087302031DE82E700862
:100DCE007202031CEB2EEC2EBD2EED2E08007108C8
:100DDE0070040319F32EF42E2A2FF5010314F50DCA
:100DEE00042F01300310F00DF10DFF3E031DF92EFF
:100DFE000130F4007408F507042FF11F072F082F98
:100E0E00F82E0A2F0A2F71087302031D102F700877
:100E1E007202031C132F142F1B2F7008F20271087D
:100E2E00031CF303F3021B2F01300310F10CF00C23
:100E3E00FF3E031D1C2F0130F502031D272F282F07
:100E4E000A2F2A2F2A2F7308F101F1077208F001D9
:100E5E00F007312F08000030F5000030F600710861
:100E6E00700403193B2F3C2F7A2FF7010314F70D53
:100E7E004C2F01300310F00DF10DFF3E031D412FDD
:100E8E000130F4007408F7074C2FF11F4F2F502F2D
:100E9E00402F522F522F01300310F50DF60DFF3E4D
:100EAE00031D532F71087302031D5F2F700872020A
:100EBE00031C622F632F6B2F7008F2027108031C44
:100ECE00F303F30275146B2F01300310F10CF00CC9
:100EDE00FF3E031D6C2F0130F702031D772F782F75
:100EEE00522F7A2F7A2F7608F101F1077508F0014B
:100EFE00F007812F08008316031387018801872FBF
:100F0E000A30F0000030F1007B08F301F3077A0895
:100F1E00F201F2070A128A1132270A128A11700898
:100F2E00203E8400831300088312031387000810E9
:100F3E0088140530F0000030F1000A128A11B8262C
:100F4E000A128A1183120313081087010A30F00067
:100F5E000030F1007B08F301F3077A08F201F20783
:100F6E000A128A11EE260A128A117008203E840097
:100F7E0083130008831203138700081488100530AA
:100F8E00F0000030F1000A128A11B8260A128A11F6
:100F9E0083120313881087010130F8070318F90A2A
:100FAE000030F907013079022D3003197802031C45
:100FBE00E12FE22F872F0030F8000030F9000130CA
:100FCE00FA070318FB0A0030FB0700307B0264307F
:100FDE0003197A02031CF42FF52F872F0030FA0025
:100FEE000030FB00872F872F872F872F0A128A1139
:020FFE000028C9
:00000001FF
